{
  "contractName": "ElectionNFTManager",
  "abi": [
    {
      "inputs": [
        {
          "internalType": "string",
          "name": "name_",
          "type": "string"
        },
        {
          "internalType": "string",
          "name": "symbol_",
          "type": "string"
        },
        {
          "internalType": "uint256",
          "name": "cap_",
          "type": "uint256"
        }
      ],
      "stateMutability": "nonpayable",
      "type": "constructor"
    },
    {
      "anonymous": false,
      "inputs": [
        {
          "indexed": true,
          "internalType": "bytes32",
          "name": "role",
          "type": "bytes32"
        },
        {
          "indexed": true,
          "internalType": "bytes32",
          "name": "previousAdminRole",
          "type": "bytes32"
        },
        {
          "indexed": true,
          "internalType": "bytes32",
          "name": "newAdminRole",
          "type": "bytes32"
        }
      ],
      "name": "RoleAdminChanged",
      "type": "event"
    },
    {
      "anonymous": false,
      "inputs": [
        {
          "indexed": true,
          "internalType": "bytes32",
          "name": "role",
          "type": "bytes32"
        },
        {
          "indexed": true,
          "internalType": "address",
          "name": "account",
          "type": "address"
        },
        {
          "indexed": true,
          "internalType": "address",
          "name": "sender",
          "type": "address"
        }
      ],
      "name": "RoleGranted",
      "type": "event"
    },
    {
      "anonymous": false,
      "inputs": [
        {
          "indexed": true,
          "internalType": "bytes32",
          "name": "role",
          "type": "bytes32"
        },
        {
          "indexed": true,
          "internalType": "address",
          "name": "account",
          "type": "address"
        },
        {
          "indexed": true,
          "internalType": "address",
          "name": "sender",
          "type": "address"
        }
      ],
      "name": "RoleRevoked",
      "type": "event"
    },
    {
      "inputs": [],
      "name": "ADMIN_ROLE",
      "outputs": [
        {
          "internalType": "bytes32",
          "name": "",
          "type": "bytes32"
        }
      ],
      "stateMutability": "view",
      "type": "function",
      "constant": true
    },
    {
      "inputs": [],
      "name": "DEFAULT_ADMIN_ROLE",
      "outputs": [
        {
          "internalType": "bytes32",
          "name": "",
          "type": "bytes32"
        }
      ],
      "stateMutability": "view",
      "type": "function",
      "constant": true
    },
    {
      "inputs": [
        {
          "internalType": "bytes32",
          "name": "role",
          "type": "bytes32"
        }
      ],
      "name": "getRoleAdmin",
      "outputs": [
        {
          "internalType": "bytes32",
          "name": "",
          "type": "bytes32"
        }
      ],
      "stateMutability": "view",
      "type": "function",
      "constant": true
    },
    {
      "inputs": [
        {
          "internalType": "bytes32",
          "name": "role",
          "type": "bytes32"
        },
        {
          "internalType": "uint256",
          "name": "index",
          "type": "uint256"
        }
      ],
      "name": "getRoleMember",
      "outputs": [
        {
          "internalType": "address",
          "name": "",
          "type": "address"
        }
      ],
      "stateMutability": "view",
      "type": "function",
      "constant": true
    },
    {
      "inputs": [
        {
          "internalType": "bytes32",
          "name": "role",
          "type": "bytes32"
        }
      ],
      "name": "getRoleMemberCount",
      "outputs": [
        {
          "internalType": "uint256",
          "name": "",
          "type": "uint256"
        }
      ],
      "stateMutability": "view",
      "type": "function",
      "constant": true
    },
    {
      "inputs": [
        {
          "internalType": "bytes32",
          "name": "role",
          "type": "bytes32"
        },
        {
          "internalType": "address",
          "name": "account",
          "type": "address"
        }
      ],
      "name": "grantRole",
      "outputs": [],
      "stateMutability": "nonpayable",
      "type": "function"
    },
    {
      "inputs": [
        {
          "internalType": "bytes32",
          "name": "role",
          "type": "bytes32"
        },
        {
          "internalType": "address",
          "name": "account",
          "type": "address"
        }
      ],
      "name": "hasRole",
      "outputs": [
        {
          "internalType": "bool",
          "name": "",
          "type": "bool"
        }
      ],
      "stateMutability": "view",
      "type": "function",
      "constant": true
    },
    {
      "inputs": [],
      "name": "nft",
      "outputs": [
        {
          "internalType": "contract ElectionNFT",
          "name": "",
          "type": "address"
        }
      ],
      "stateMutability": "view",
      "type": "function",
      "constant": true
    },
    {
      "inputs": [
        {
          "internalType": "bytes32",
          "name": "role",
          "type": "bytes32"
        },
        {
          "internalType": "address",
          "name": "account",
          "type": "address"
        }
      ],
      "name": "renounceRole",
      "outputs": [],
      "stateMutability": "nonpayable",
      "type": "function"
    },
    {
      "inputs": [
        {
          "internalType": "bytes32",
          "name": "role",
          "type": "bytes32"
        },
        {
          "internalType": "address",
          "name": "account",
          "type": "address"
        }
      ],
      "name": "revokeRole",
      "outputs": [],
      "stateMutability": "nonpayable",
      "type": "function"
    },
    {
      "inputs": [],
      "name": "stopActiveElection",
      "outputs": [],
      "stateMutability": "nonpayable",
      "type": "function"
    },
    {
      "inputs": [
        {
          "internalType": "string",
          "name": "name_",
          "type": "string"
        },
        {
          "internalType": "string",
          "name": "symbol_",
          "type": "string"
        },
        {
          "internalType": "uint256",
          "name": "cap_",
          "type": "uint256"
        }
      ],
      "name": "createNewElection",
      "outputs": [],
      "stateMutability": "nonpayable",
      "type": "function"
    }
  ],
  "bytecode": "0x60806040523480156200001157600080fd5b50604051620066cc380380620066cc833981810160405260608110156200003757600080fd5b81019080805160405193929190846401000000008211156200005857600080fd5b838201915060208201858111156200006f57600080fd5b82518660018202830111640100000000821117156200008d57600080fd5b8083526020830192505050908051906020019080838360005b83811015620000c3578082015181840152602081019050620000a6565b50505050905090810190601f168015620000f15780820380516001836020036101000a031916815260200191505b50604052602001805160405193929190846401000000008211156200011557600080fd5b838201915060208201858111156200012c57600080fd5b82518660018202830111640100000000821117156200014a57600080fd5b8083526020830192505050908051906020019080838360005b838110156200018057808201518184015260208101905062000163565b50505050905090810190601f168015620001ae5780820380516001836020036101000a031916815260200191505b5060405260200180519060200190929190505050620001f47fa49807205ce4d355092ef5a8a18f56e8913cf4a201fbe287825b095693c21775336200021060201b60201c565b620002078383836200022660201b60201c565b505050620006ca565b620002228282620004cc60201b60201c565b5050565b620002587fa49807205ce4d355092ef5a8a18f56e8913cf4a201fbe287825b095693c21775336200056f60201b60201c565b620002cb576040517f08c379a000000000000000000000000000000000000000000000000000000000815260040180806020018281038252601a8152602001807f43616c6c6572206973206e6f7420612041444d494e5f524f4c4500000000000081525060200191505060405180910390fd5b828282604051620002dc90620006bc565b808060200180602001848152602001838103835286818151815260200191508051906020019080838360005b838110156200032557808201518184015260208101905062000308565b50505050905090810190601f168015620003535780820380516001836020036101000a031916815260200191505b50838103825285818151815260200191508051906020019080838360005b838110156200038e57808201518184015260208101905062000371565b50505050905090810190601f168015620003bc5780820380516001836020036101000a031916815260200191505b5095505050505050604051809103906000f080158015620003e1573d6000803e3d6000fd5b50600160006101000a81548173ffffffffffffffffffffffffffffffffffffffff021916908373ffffffffffffffffffffffffffffffffffffffff160217905550600160009054906101000a900473ffffffffffffffffffffffffffffffffffffffff1673ffffffffffffffffffffffffffffffffffffffff16632d06177a336040518263ffffffff1660e01b8152600401808273ffffffffffffffffffffffffffffffffffffffff168152602001915050600060405180830381600087803b158015620004ae57600080fd5b505af1158015620004c3573d6000803e3d6000fd5b50505050505050565b620004fa81600080858152602001908152602001600020600001620005a760201b62000ade1790919060201c565b156200056b5762000510620005df60201b60201c565b73ffffffffffffffffffffffffffffffffffffffff168173ffffffffffffffffffffffffffffffffffffffff16837f2f8788117e7eff1d82e926ec794901d17c78024a50270940304540a733656f0d60405160405180910390a45b5050565b60006200059f82600080868152602001908152602001600020600001620005e760201b62000b101790919060201c565b905092915050565b6000620005d7836000018373ffffffffffffffffffffffffffffffffffffffff1660001b6200061f60201b60201c565b905092915050565b600033905090565b600062000617836000018373ffffffffffffffffffffffffffffffffffffffff1660001b6200069960201b60201c565b905092915050565b60006200063383836200069960201b60201c565b6200068e57826000018290806001815401808255809150506001900390600052602060002001600090919091909150558260000180549050836001016000848152602001908152602001600020819055506001905062000693565b600090505b92915050565b600080836001016000848152602001908152602001600020541415905092915050565b6128028062003eca83390190565b6137f080620006da6000396000f3fe60806040523480156200001157600080fd5b5060043610620000c45760003560e01c806391d14854116200007b57806391d14854146200026b578063a217fddf14620002d2578063c137e70414620002f2578063ca15c87314620002fe578063d547741f1462000343578063d89881fe146200039457620000c4565b8063248a9ca314620000c95780632f2ff15d146200010e57806336568abe146200015f57806347ccca0214620001b057806375b238fc14620001e65780639010d07c1462000206575b600080fd5b620000f860048036036020811015620000e157600080fd5b8101908080359060200190929190505050620004f9565b6040518082815260200191505060405180910390f35b6200015d600480360360408110156200012657600080fd5b8101908080359060200190929190803573ffffffffffffffffffffffffffffffffffffffff16906020019092919050505062000518565b005b620001ae600480360360408110156200017757600080fd5b8101908080359060200190929190803573ffffffffffffffffffffffffffffffffffffffff169060200190929190505050620005a9565b005b620001ba62000648565b604051808273ffffffffffffffffffffffffffffffffffffffff16815260200191505060405180910390f35b620001f06200066e565b6040518082815260200191505060405180910390f35b6200023f600480360360408110156200021e57600080fd5b81019080803590602001909291908035906020019092919050505062000692565b604051808273ffffffffffffffffffffffffffffffffffffffff16815260200191505060405180910390f35b620002ba600480360360408110156200028357600080fd5b8101908080359060200190929190803573ffffffffffffffffffffffffffffffffffffffff169060200190929190505050620006c5565b60405180821515815260200191505060405180910390f35b620002dc620006f8565b6040518082815260200191505060405180910390f35b620002fc620006ff565b005b6200032d600480360360208110156200031657600080fd5b810190808035906020019092919050505062000785565b6040518082815260200191505060405180910390f35b62000392600480360360408110156200035b57600080fd5b8101908080359060200190929190803573ffffffffffffffffffffffffffffffffffffffff169060200190929190505050620007ad565b005b620004f760048036036060811015620003ac57600080fd5b8101908080359060200190640100000000811115620003ca57600080fd5b820183602082011115620003dd57600080fd5b803590602001918460018302840111640100000000831117156200040057600080fd5b91908080601f016020809104026020016040519081016040528093929190818152602001838380828437600081840152601f19601f820116905080830192505050505050509192919290803590602001906401000000008111156200046457600080fd5b8201836020820111156200047757600080fd5b803590602001918460018302840111640100000000831117156200049a57600080fd5b91908080601f016020809104026020016040519081016040528093929190818152602001838380828437600081840152601f19601f820116905080830192505050505050509192919290803590602001909291905050506200083e565b005b6000806000838152602001908152602001600020600201549050919050565b62000542600080848152602001908152602001600020600201546200053c62000b42565b620006c5565b62000599576040517f08c379a000000000000000000000000000000000000000000000000000000000815260040180806020018281038252602f8152602001806200372d602f913960400191505060405180910390fd5b620005a5828262000b4a565b5050565b620005b362000b42565b73ffffffffffffffffffffffffffffffffffffffff168173ffffffffffffffffffffffffffffffffffffffff161462000638576040517f08c379a000000000000000000000000000000000000000000000000000000000815260040180806020018281038252602f8152602001806200378c602f913960400191505060405180910390fd5b62000644828262000be2565b5050565b600160009054906101000a900473ffffffffffffffffffffffffffffffffffffffff1681565b7fa49807205ce4d355092ef5a8a18f56e8913cf4a201fbe287825b095693c2177581565b6000620006bd8260008086815260200190815260200160002060000162000c7a90919063ffffffff16565b905092915050565b6000620006f08260008086815260200190815260200160002060000162000b1090919063ffffffff16565b905092915050565b6000801b81565b600160009054906101000a900473ffffffffffffffffffffffffffffffffffffffff1673ffffffffffffffffffffffffffffffffffffffff16638456cb596040518163ffffffff1660e01b8152600401600060405180830381600087803b1580156200076a57600080fd5b505af11580156200077f573d6000803e3d6000fd5b50505050565b6000620007a660008084815260200190815260200160002060000162000c96565b9050919050565b620007d760008084815260200190815260200160002060020154620007d162000b42565b620006c5565b6200082e576040517f08c379a00000000000000000000000000000000000000000000000000000000081526004018080602001828103825260308152602001806200375c6030913960400191505060405180910390fd5b6200083a828262000be2565b5050565b6200086a7fa49807205ce4d355092ef5a8a18f56e8913cf4a201fbe287825b095693c2177533620006c5565b620008dd576040517f08c379a000000000000000000000000000000000000000000000000000000000815260040180806020018281038252601a8152602001807f43616c6c6572206973206e6f7420612041444d494e5f524f4c4500000000000081525060200191505060405180910390fd5b828282604051620008ee9062000efa565b808060200180602001848152602001838103835286818151815260200191508051906020019080838360005b83811015620009375780820151818401526020810190506200091a565b50505050905090810190601f168015620009655780820380516001836020036101000a031916815260200191505b50838103825285818151815260200191508051906020019080838360005b83811015620009a057808201518184015260208101905062000983565b50505050905090810190601f168015620009ce5780820380516001836020036101000a031916815260200191505b5095505050505050604051809103906000f080158015620009f3573d6000803e3d6000fd5b50600160006101000a81548173ffffffffffffffffffffffffffffffffffffffff021916908373ffffffffffffffffffffffffffffffffffffffff160217905550600160009054906101000a900473ffffffffffffffffffffffffffffffffffffffff1673ffffffffffffffffffffffffffffffffffffffff16632d06177a336040518263ffffffff1660e01b8152600401808273ffffffffffffffffffffffffffffffffffffffff168152602001915050600060405180830381600087803b15801562000ac057600080fd5b505af115801562000ad5573d6000803e3d6000fd5b50505050505050565b600062000b08836000018373ffffffffffffffffffffffffffffffffffffffff1660001b62000cad565b905092915050565b600062000b3a836000018373ffffffffffffffffffffffffffffffffffffffff1660001b62000d21565b905092915050565b600033905090565b62000b738160008085815260200190815260200160002060000162000ade90919063ffffffff16565b1562000bde5762000b8362000b42565b73ffffffffffffffffffffffffffffffffffffffff168173ffffffffffffffffffffffffffffffffffffffff16837f2f8788117e7eff1d82e926ec794901d17c78024a50270940304540a733656f0d60405160405180910390a45b5050565b62000c0b8160008085815260200190815260200160002060000162000d4490919063ffffffff16565b1562000c765762000c1b62000b42565b73ffffffffffffffffffffffffffffffffffffffff168173ffffffffffffffffffffffffffffffffffffffff16837ff6391f5c32d9c69d2a47ea670b442974b53935d1edc7fd64eb21e047a839171b60405160405180910390a45b5050565b600062000c8b836000018362000d76565b60001c905092915050565b600062000ca68260000162000dfc565b9050919050565b600062000cbb838362000d21565b62000d1657826000018290806001815401808255809150506001900390600052602060002001600090919091909150558260000180549050836001016000848152602001908152602001600020819055506001905062000d1b565b600090505b92915050565b600080836001016000848152602001908152602001600020541415905092915050565b600062000d6e836000018373ffffffffffffffffffffffffffffffffffffffff1660001b62000e0d565b905092915050565b60008183600001805490501162000dd9576040517f08c379a00000000000000000000000000000000000000000000000000000000081526004018080602001828103825260228152602001806200370b6022913960400191505060405180910390fd5b82600001828154811062000de957fe5b9060005260206000200154905092915050565b600081600001805490509050919050565b6000808360010160008481526020019081526020016000205490506000811462000eee576000600182039050600060018660000180549050039050600086600001828154811062000e5a57fe5b906000526020600020015490508087600001848154811062000e7857fe5b906000526020600020018190555060018301876001016000838152602001908152602001600020819055508660000180548062000eb157fe5b6001900381819060005260206000200160009055905586600101600087815260200190815260200160002060009055600194505050505062000ef4565b60009150505b92915050565b6128028062000f098339019056fe60806040523480156200001157600080fd5b506040516200280238038062002802833981810160405260608110156200003757600080fd5b81019080805160405193929190846401000000008211156200005857600080fd5b838201915060208201858111156200006f57600080fd5b82518660018202830111640100000000821117156200008d57600080fd5b8083526020830192505050908051906020019080838360005b83811015620000c3578082015181840152602081019050620000a6565b50505050905090810190601f168015620000f15780820380516001836020036101000a031916815260200191505b50604052602001805160405193929190846401000000008211156200011557600080fd5b838201915060208201858111156200012c57600080fd5b82518660018202830111640100000000821117156200014a57600080fd5b8083526020830192505050908051906020019080838360005b838110156200018057808201518184015260208101905062000163565b50505050905090810190601f168015620001ae5780820380516001836020036101000a031916815260200191505b506040526020018051906020019092919050505082828160039080519060200190620001dc929190620004af565b508060049080519060200190620001f5929190620004af565b506012600560006101000a81548160ff021916908360ff16021790555050506000600560016101000a81548160ff02191690831515021790555060008111620002a6576040517f08c379a00000000000000000000000000000000000000000000000000000000081526004018080602001828103825260158152602001807f456c656374696f6e4e46543a206361702069732030000000000000000000000081525060200191505060405180910390fd5b620002b86001620002fa60201b60201c565b620002ea7f241ecf16d79d0f8dbfb92cbc07fe17840425976cf0667f022fe9877caa831b08336200031860201b60201c565b8060078190555050505062000565565b80600560006101000a81548160ff021916908360ff16021790555050565b6200032a82826200032e60201b60201c565b5050565b6200035d8160066000858152602001908152602001600020600001620003d260201b620012671790919060201c565b15620003ce57620003736200040a60201b60201c565b73ffffffffffffffffffffffffffffffffffffffff168173ffffffffffffffffffffffffffffffffffffffff16837f2f8788117e7eff1d82e926ec794901d17c78024a50270940304540a733656f0d60405160405180910390a45b5050565b600062000402836000018373ffffffffffffffffffffffffffffffffffffffff1660001b6200041260201b60201c565b905092915050565b600033905090565b60006200042683836200048c60201b60201c565b6200048157826000018290806001815401808255809150506001900390600052602060002001600090919091909150558260000180549050836001016000848152602001908152602001600020819055506001905062000486565b600090505b92915050565b600080836001016000848152602001908152602001600020541415905092915050565b828054600181600116156101000203166002900490600052602060002090601f016020900481019282620004e7576000855562000533565b82601f106200050257805160ff191683800117855562000533565b8280016001018555821562000533579182015b828111156200053257825182559160200191906001019062000515565b5b50905062000542919062000546565b5090565b5b808211156200056157600081600090555060010162000547565b5090565b61228d80620005756000396000f3fe608060405234801561001057600080fd5b50600436106101735760003560e01c80636a627842116100de578063a217fddf11610097578063ca15c87311610071578063ca15c873146107bb578063d547741f146107fd578063dd62ed3e1461084b578063ec87621c146108c357610173565b8063a217fddf146106d5578063a457c2d7146106f3578063a9059cbb1461075757610173565b80636a627842146104e657806370a082311461052a5780638456cb59146105825780639010d07c1461058c57806391d14854146105ee57806395d89b411461065257610173565b80632f2ff15d116101305780632f2ff15d14610387578063313ce567146103d5578063355274ea146103f657806336568abe1461041457806339509351146104625780635c975abb146104c657610173565b806306fdde0314610178578063095ea7b3146101fb57806318160ddd1461025f57806323b872dd1461027d578063248a9ca3146103015780632d06177a14610343575b600080fd5b6101806108e1565b6040518080602001828103825283818151815260200191508051906020019080838360005b838110156101c05780820151818401526020810190506101a5565b50505050905090810190601f1680156101ed5780820380516001836020036101000a031916815260200191505b509250505060405180910390f35b6102476004803603604081101561021157600080fd5b81019080803573ffffffffffffffffffffffffffffffffffffffff16906020019092919080359060200190929190505050610983565b60405180821515815260200191505060405180910390f35b6102676109a1565b6040518082815260200191505060405180910390f35b6102e96004803603606081101561029357600080fd5b81019080803573ffffffffffffffffffffffffffffffffffffffff169060200190929190803573ffffffffffffffffffffffffffffffffffffffff169060200190929190803590602001909291905050506109ab565b60405180821515815260200191505060405180910390f35b61032d6004803603602081101561031757600080fd5b8101908080359060200190929190505050610a84565b6040518082815260200191505060405180910390f35b6103856004803603602081101561035957600080fd5b81019080803573ffffffffffffffffffffffffffffffffffffffff169060200190929190505050610aa4565b005b6103d36004803603604081101561039d57600080fd5b8101908080359060200190929190803573ffffffffffffffffffffffffffffffffffffffff169060200190929190505050610b6d565b005b6103dd610bf7565b604051808260ff16815260200191505060405180910390f35b6103fe610c0e565b6040518082815260200191505060405180910390f35b6104606004803603604081101561042a57600080fd5b8101908080359060200190929190803573ffffffffffffffffffffffffffffffffffffffff169060200190929190505050610c18565b005b6104ae6004803603604081101561047857600080fd5b81019080803573ffffffffffffffffffffffffffffffffffffffff16906020019092919080359060200190929190505050610cb1565b60405180821515815260200191505060405180910390f35b6104ce610d64565b60405180821515815260200191505060405180910390f35b610528600480360360208110156104fc57600080fd5b81019080803573ffffffffffffffffffffffffffffffffffffffff169060200190929190505050610d7b565b005b61056c6004803603602081101561054057600080fd5b81019080803573ffffffffffffffffffffffffffffffffffffffff169060200190929190505050610e25565b6040518082815260200191505060405180910390f35b61058a610e6d565b005b6105c2600480360360408110156105a257600080fd5b810190808035906020019092919080359060200190929190505050610f13565b604051808273ffffffffffffffffffffffffffffffffffffffff16815260200191505060405180910390f35b61063a6004803603604081101561060457600080fd5b8101908080359060200190929190803573ffffffffffffffffffffffffffffffffffffffff169060200190929190505050610f45565b60405180821515815260200191505060405180910390f35b61065a610f77565b6040518080602001828103825283818151815260200191508051906020019080838360005b8381101561069a57808201518184015260208101905061067f565b50505050905090810190601f1680156106c75780820380516001836020036101000a031916815260200191505b509250505060405180910390f35b6106dd611019565b6040518082815260200191505060405180910390f35b61073f6004803603604081101561070957600080fd5b81019080803573ffffffffffffffffffffffffffffffffffffffff16906020019092919080359060200190929190505050611020565b60405180821515815260200191505060405180910390f35b6107a36004803603604081101561076d57600080fd5b81019080803573ffffffffffffffffffffffffffffffffffffffff169060200190929190803590602001909291905050506110ed565b60405180821515815260200191505060405180910390f35b6107e7600480360360208110156107d157600080fd5b810190808035906020019092919050505061110b565b6040518082815260200191505060405180910390f35b6108496004803603604081101561081357600080fd5b8101908080359060200190929190803573ffffffffffffffffffffffffffffffffffffffff169060200190929190505050611132565b005b6108ad6004803603604081101561086157600080fd5b81019080803573ffffffffffffffffffffffffffffffffffffffff169060200190929190803573ffffffffffffffffffffffffffffffffffffffff1690602001909291905050506111bc565b6040518082815260200191505060405180910390f35b6108cb611243565b6040518082815260200191505060405180910390f35b606060038054600181600116156101000203166002900480601f0160208091040260200160405190810160405280929190818152602001828054600181600116156101000203166002900480156109795780601f1061094e57610100808354040283529160200191610979565b820191906000526020600020905b81548152906001019060200180831161095c57829003601f168201915b5050505050905090565b6000610997610990611297565b848461129f565b6001905092915050565b6000600254905090565b60006109b8848484611496565b610a79846109c4611297565b610a748560405180606001604052806028815260200161219360289139600160008b73ffffffffffffffffffffffffffffffffffffffff1673ffffffffffffffffffffffffffffffffffffffff1681526020019081526020016000206000610a2a611297565b73ffffffffffffffffffffffffffffffffffffffff1673ffffffffffffffffffffffffffffffffffffffff168152602001908152602001600020546117579092919063ffffffff16565b61129f565b600190509392505050565b600060066000838152602001908152602001600020600201549050919050565b610ace7f241ecf16d79d0f8dbfb92cbc07fe17840425976cf0667f022fe9877caa831b0833610f45565b610b40576040517f08c379a000000000000000000000000000000000000000000000000000000000815260040180806020018281038252601c8152602001807f43616c6c6572206973206e6f742061204d414e414745525f524f4c450000000081525060200191505060405180910390fd5b610b6a7f241ecf16d79d0f8dbfb92cbc07fe17840425976cf0667f022fe9877caa831b0882611817565b50565b610b946006600084815260200190815260200160002060020154610b8f611297565b610f45565b610be9576040517f08c379a000000000000000000000000000000000000000000000000000000000815260040180806020018281038252602f8152602001806120ae602f913960400191505060405180910390fd5b610bf38282611825565b5050565b6000600560009054906101000a900460ff16905090565b6000600754905090565b610c20611297565b73ffffffffffffffffffffffffffffffffffffffff168173ffffffffffffffffffffffffffffffffffffffff1614610ca3576040517f08c379a000000000000000000000000000000000000000000000000000000000815260040180806020018281038252602f815260200180612229602f913960400191505060405180910390fd5b610cad82826118b9565b5050565b6000610d5a610cbe611297565b84610d558560016000610ccf611297565b73ffffffffffffffffffffffffffffffffffffffff1673ffffffffffffffffffffffffffffffffffffffff16815260200190815260200160002060008973ffffffffffffffffffffffffffffffffffffffff1673ffffffffffffffffffffffffffffffffffffffff1681526020019081526020016000205461194d90919063ffffffff16565b61129f565b6001905092915050565b6000600560019054906101000a900460ff16905090565b610da57f241ecf16d79d0f8dbfb92cbc07fe17840425976cf0667f022fe9877caa831b0833610f45565b610e17576040517f08c379a000000000000000000000000000000000000000000000000000000000815260040180806020018281038252601c8152602001807f43616c6c6572206973206e6f742061204d414e414745525f524f4c450000000081525060200191505060405180910390fd5b610e228160016119d5565b50565b60008060008373ffffffffffffffffffffffffffffffffffffffff1673ffffffffffffffffffffffffffffffffffffffff168152602001908152602001600020549050919050565b610e977f241ecf16d79d0f8dbfb92cbc07fe17840425976cf0667f022fe9877caa831b0833610f45565b610f09576040517f08c379a000000000000000000000000000000000000000000000000000000000815260040180806020018281038252601c8152602001807f43616c6c6572206973206e6f742061204d414e414745525f524f4c450000000081525060200191505060405180910390fd5b610f11611b9c565b565b6000610f3d8260066000868152602001908152602001600020600001611c9090919063ffffffff16565b905092915050565b6000610f6f8260066000868152602001908152602001600020600001611caa90919063ffffffff16565b905092915050565b606060048054600181600116156101000203166002900480601f01602080910402602001604051908101604052809291908181526020018280546001816001161561010002031660029004801561100f5780601f10610fe45761010080835404028352916020019161100f565b820191906000526020600020905b815481529060010190602001808311610ff257829003601f168201915b5050505050905090565b6000801b81565b60006110e361102d611297565b846110de856040518060600160405280602581526020016122046025913960016000611057611297565b73ffffffffffffffffffffffffffffffffffffffff1673ffffffffffffffffffffffffffffffffffffffff16815260200190815260200160002060008a73ffffffffffffffffffffffffffffffffffffffff1673ffffffffffffffffffffffffffffffffffffffff168152602001908152602001600020546117579092919063ffffffff16565b61129f565b6001905092915050565b60006111016110fa611297565b8484611496565b6001905092915050565b600061112b60066000848152602001908152602001600020600001611cda565b9050919050565b6111596006600084815260200190815260200160002060020154611154611297565b610f45565b6111ae576040517f08c379a00000000000000000000000000000000000000000000000000000000081526004018080602001828103825260308152602001806121636030913960400191505060405180910390fd5b6111b882826118b9565b5050565b6000600160008473ffffffffffffffffffffffffffffffffffffffff1673ffffffffffffffffffffffffffffffffffffffff16815260200190815260200160002060008373ffffffffffffffffffffffffffffffffffffffff1673ffffffffffffffffffffffffffffffffffffffff16815260200190815260200160002054905092915050565b7f241ecf16d79d0f8dbfb92cbc07fe17840425976cf0667f022fe9877caa831b0881565b600061128f836000018373ffffffffffffffffffffffffffffffffffffffff1660001b611cef565b905092915050565b600033905090565b600073ffffffffffffffffffffffffffffffffffffffff168373ffffffffffffffffffffffffffffffffffffffff161415611325576040517f08c379a00000000000000000000000000000000000000000000000000000000081526004018080602001828103825260248152602001806121e06024913960400191505060405180910390fd5b600073ffffffffffffffffffffffffffffffffffffffff168273ffffffffffffffffffffffffffffffffffffffff1614156113ab576040517f08c379a00000000000000000000000000000000000000000000000000000000081526004018080602001828103825260228152602001806120dd6022913960400191505060405180910390fd5b80600160008573ffffffffffffffffffffffffffffffffffffffff1673ffffffffffffffffffffffffffffffffffffffff16815260200190815260200160002060008473ffffffffffffffffffffffffffffffffffffffff1673ffffffffffffffffffffffffffffffffffffffff168152602001908152602001600020819055508173ffffffffffffffffffffffffffffffffffffffff168373ffffffffffffffffffffffffffffffffffffffff167f8c5be1e5ebec7d5bd14f71427d1e84f3dd0314c0f7b2291e5b200ac8c7c3b925836040518082815260200191505060405180910390a3505050565b600073ffffffffffffffffffffffffffffffffffffffff168373ffffffffffffffffffffffffffffffffffffffff16141561151c576040517f08c379a00000000000000000000000000000000000000000000000000000000081526004018080602001828103825260258152602001806121bb6025913960400191505060405180910390fd5b600073ffffffffffffffffffffffffffffffffffffffff168273ffffffffffffffffffffffffffffffffffffffff1614156115a2576040517f08c379a000000000000000000000000000000000000000000000000000000000815260040180806020018281038252602381526020018061208b6023913960400191505060405180910390fd5b6115ad838383611d5f565b6116188160405180606001604052806026815260200161213d602691396000808773ffffffffffffffffffffffffffffffffffffffff1673ffffffffffffffffffffffffffffffffffffffff168152602001908152602001600020546117579092919063ffffffff16565b6000808573ffffffffffffffffffffffffffffffffffffffff1673ffffffffffffffffffffffffffffffffffffffff168152602001908152602001600020819055506116ab816000808573ffffffffffffffffffffffffffffffffffffffff1673ffffffffffffffffffffffffffffffffffffffff1681526020019081526020016000205461194d90919063ffffffff16565b6000808473ffffffffffffffffffffffffffffffffffffffff1673ffffffffffffffffffffffffffffffffffffffff168152602001908152602001600020819055508173ffffffffffffffffffffffffffffffffffffffff168373ffffffffffffffffffffffffffffffffffffffff167fddf252ad1be2c89b69c2b068fc378daa952ba7f163c4a11628f55a4df523b3ef836040518082815260200191505060405180910390a3505050565b6000838311158290611804576040517f08c379a00000000000000000000000000000000000000000000000000000000081526004018080602001828103825283818151815260200191508051906020019080838360005b838110156117c95780820151818401526020810190506117ae565b50505050905090810190601f1680156117f65780820380516001836020036101000a031916815260200191505b509250505060405180910390fd5b5060008385039050809150509392505050565b6118218282611825565b5050565b61184d816006600085815260200190815260200160002060000161126790919063ffffffff16565b156118b55761185a611297565b73ffffffffffffffffffffffffffffffffffffffff168173ffffffffffffffffffffffffffffffffffffffff16837f2f8788117e7eff1d82e926ec794901d17c78024a50270940304540a733656f0d60405160405180910390a45b5050565b6118e18160066000858152602001908152602001600020600001611e9490919063ffffffff16565b15611949576118ee611297565b73ffffffffffffffffffffffffffffffffffffffff168173ffffffffffffffffffffffffffffffffffffffff16837ff6391f5c32d9c69d2a47ea670b442974b53935d1edc7fd64eb21e047a839171b60405160405180910390a45b5050565b6000808284019050838110156119cb576040517f08c379a000000000000000000000000000000000000000000000000000000000815260040180806020018281038252601b8152602001807f536166654d6174683a206164646974696f6e206f766572666c6f77000000000081525060200191505060405180910390fd5b8091505092915050565b600073ffffffffffffffffffffffffffffffffffffffff168273ffffffffffffffffffffffffffffffffffffffff161415611a78576040517f08c379a000000000000000000000000000000000000000000000000000000000815260040180806020018281038252601f8152602001807f45524332303a206d696e7420746f20746865207a65726f20616464726573730081525060200191505060405180910390fd5b611a8460008383611d5f565b611a998160025461194d90919063ffffffff16565b600281905550611af0816000808573ffffffffffffffffffffffffffffffffffffffff1673ffffffffffffffffffffffffffffffffffffffff1681526020019081526020016000205461194d90919063ffffffff16565b6000808473ffffffffffffffffffffffffffffffffffffffff1673ffffffffffffffffffffffffffffffffffffffff168152602001908152602001600020819055508173ffffffffffffffffffffffffffffffffffffffff16600073ffffffffffffffffffffffffffffffffffffffff167fddf252ad1be2c89b69c2b068fc378daa952ba7f163c4a11628f55a4df523b3ef836040518082815260200191505060405180910390a35050565b600560019054906101000a900460ff1615611c1f576040517f08c379a00000000000000000000000000000000000000000000000000000000081526004018080602001828103825260108152602001807f5061757361626c653a207061757365640000000000000000000000000000000081525060200191505060405180910390fd5b6001600560016101000a81548160ff0219169083151502179055507f62e78cea01bee320cd4e420270b5ea74000d11b0c9f74754ebdbfc544b05a258611c63611297565b604051808273ffffffffffffffffffffffffffffffffffffffff16815260200191505060405180910390a1565b6000611c9f8360000183611ec4565b60001c905092915050565b6000611cd2836000018373ffffffffffffffffffffffffffffffffffffffff1660001b611f47565b905092915050565b6000611ce882600001611f6a565b9050919050565b6000611cfb8383611f47565b611d54578260000182908060018154018082558091505060019003906000526020600020016000909190919091505582600001805490508360010160008481526020019081526020016000208190555060019050611d59565b600090505b92915050565b611d6a838383611f7b565b611d72610d64565b15611dc8576040517f08c379a000000000000000000000000000000000000000000000000000000000815260040180806020018281038252603e8152602001806120ff603e913960400191505060405180910390fd5b600073ffffffffffffffffffffffffffffffffffffffff168373ffffffffffffffffffffffffffffffffffffffff161415611e8f57600754611e1a82611e0c6109a1565b61194d90919063ffffffff16565b1115611e8e576040517f08c379a00000000000000000000000000000000000000000000000000000000081526004018080602001828103825260198152602001807f45524332304361707065643a206361702065786365656465640000000000000081525060200191505060405180910390fd5b5b505050565b6000611ebc836000018373ffffffffffffffffffffffffffffffffffffffff1660001b611f80565b905092915050565b600081836000018054905011611f25576040517f08c379a00000000000000000000000000000000000000000000000000000000081526004018080602001828103825260228152602001806120696022913960400191505060405180910390fd5b826000018281548110611f3457fe5b9060005260206000200154905092915050565b600080836001016000848152602001908152602001600020541415905092915050565b600081600001805490509050919050565b505050565b6000808360010160008481526020019081526020016000205490506000811461205c5760006001820390506000600186600001805490500390506000866000018281548110611fcb57fe5b9060005260206000200154905080876000018481548110611fe857fe5b906000526020600020018190555060018301876001016000838152602001908152602001600020819055508660000180548061202057fe5b60019003818190600052602060002001600090559055866001016000878152602001908152602001600020600090556001945050505050612062565b60009150505b9291505056fe456e756d657261626c655365743a20696e646578206f7574206f6620626f756e647345524332303a207472616e7366657220746f20746865207a65726f2061646472657373416363657373436f6e74726f6c3a2073656e646572206d75737420626520616e2061646d696e20746f206772616e7445524332303a20617070726f766520746f20746865207a65726f2061646472657373456c656374696f6e4e46543a2063616e6e6f7420646f20746f6b656e207472616e73666572207768696c6520656c656374696f6e2069732070617573656445524332303a207472616e7366657220616d6f756e7420657863656564732062616c616e6365416363657373436f6e74726f6c3a2073656e646572206d75737420626520616e2061646d696e20746f207265766f6b6545524332303a207472616e7366657220616d6f756e74206578636565647320616c6c6f77616e636545524332303a207472616e736665722066726f6d20746865207a65726f206164647265737345524332303a20617070726f76652066726f6d20746865207a65726f206164647265737345524332303a2064656372656173656420616c6c6f77616e63652062656c6f77207a65726f416363657373436f6e74726f6c3a2063616e206f6e6c792072656e6f756e636520726f6c657320666f722073656c66a2646970667358221220d64b79e6a8d2297959d0bbb992fb7a5a41c52c10b5f6e044ccdde08ec4b8ff1e64736f6c63430007040033456e756d657261626c655365743a20696e646578206f7574206f6620626f756e6473416363657373436f6e74726f6c3a2073656e646572206d75737420626520616e2061646d696e20746f206772616e74416363657373436f6e74726f6c3a2073656e646572206d75737420626520616e2061646d696e20746f207265766f6b65416363657373436f6e74726f6c3a2063616e206f6e6c792072656e6f756e636520726f6c657320666f722073656c66a26469706673582212201d32c9a0c141849f3feb8b597daea5983c1cc80e5db5c7711d70addc51b4e0c264736f6c6343000704003360806040523480156200001157600080fd5b506040516200280238038062002802833981810160405260608110156200003757600080fd5b81019080805160405193929190846401000000008211156200005857600080fd5b838201915060208201858111156200006f57600080fd5b82518660018202830111640100000000821117156200008d57600080fd5b8083526020830192505050908051906020019080838360005b83811015620000c3578082015181840152602081019050620000a6565b50505050905090810190601f168015620000f15780820380516001836020036101000a031916815260200191505b50604052602001805160405193929190846401000000008211156200011557600080fd5b838201915060208201858111156200012c57600080fd5b82518660018202830111640100000000821117156200014a57600080fd5b8083526020830192505050908051906020019080838360005b838110156200018057808201518184015260208101905062000163565b50505050905090810190601f168015620001ae5780820380516001836020036101000a031916815260200191505b506040526020018051906020019092919050505082828160039080519060200190620001dc929190620004af565b508060049080519060200190620001f5929190620004af565b506012600560006101000a81548160ff021916908360ff16021790555050506000600560016101000a81548160ff02191690831515021790555060008111620002a6576040517f08c379a00000000000000000000000000000000000000000000000000000000081526004018080602001828103825260158152602001807f456c656374696f6e4e46543a206361702069732030000000000000000000000081525060200191505060405180910390fd5b620002b86001620002fa60201b60201c565b620002ea7f241ecf16d79d0f8dbfb92cbc07fe17840425976cf0667f022fe9877caa831b08336200031860201b60201c565b8060078190555050505062000565565b80600560006101000a81548160ff021916908360ff16021790555050565b6200032a82826200032e60201b60201c565b5050565b6200035d8160066000858152602001908152602001600020600001620003d260201b620012671790919060201c565b15620003ce57620003736200040a60201b60201c565b73ffffffffffffffffffffffffffffffffffffffff168173ffffffffffffffffffffffffffffffffffffffff16837f2f8788117e7eff1d82e926ec794901d17c78024a50270940304540a733656f0d60405160405180910390a45b5050565b600062000402836000018373ffffffffffffffffffffffffffffffffffffffff1660001b6200041260201b60201c565b905092915050565b600033905090565b60006200042683836200048c60201b60201c565b6200048157826000018290806001815401808255809150506001900390600052602060002001600090919091909150558260000180549050836001016000848152602001908152602001600020819055506001905062000486565b600090505b92915050565b600080836001016000848152602001908152602001600020541415905092915050565b828054600181600116156101000203166002900490600052602060002090601f016020900481019282620004e7576000855562000533565b82601f106200050257805160ff191683800117855562000533565b8280016001018555821562000533579182015b828111156200053257825182559160200191906001019062000515565b5b50905062000542919062000546565b5090565b5b808211156200056157600081600090555060010162000547565b5090565b61228d80620005756000396000f3fe608060405234801561001057600080fd5b50600436106101735760003560e01c80636a627842116100de578063a217fddf11610097578063ca15c87311610071578063ca15c873146107bb578063d547741f146107fd578063dd62ed3e1461084b578063ec87621c146108c357610173565b8063a217fddf146106d5578063a457c2d7146106f3578063a9059cbb1461075757610173565b80636a627842146104e657806370a082311461052a5780638456cb59146105825780639010d07c1461058c57806391d14854146105ee57806395d89b411461065257610173565b80632f2ff15d116101305780632f2ff15d14610387578063313ce567146103d5578063355274ea146103f657806336568abe1461041457806339509351146104625780635c975abb146104c657610173565b806306fdde0314610178578063095ea7b3146101fb57806318160ddd1461025f57806323b872dd1461027d578063248a9ca3146103015780632d06177a14610343575b600080fd5b6101806108e1565b6040518080602001828103825283818151815260200191508051906020019080838360005b838110156101c05780820151818401526020810190506101a5565b50505050905090810190601f1680156101ed5780820380516001836020036101000a031916815260200191505b509250505060405180910390f35b6102476004803603604081101561021157600080fd5b81019080803573ffffffffffffffffffffffffffffffffffffffff16906020019092919080359060200190929190505050610983565b60405180821515815260200191505060405180910390f35b6102676109a1565b6040518082815260200191505060405180910390f35b6102e96004803603606081101561029357600080fd5b81019080803573ffffffffffffffffffffffffffffffffffffffff169060200190929190803573ffffffffffffffffffffffffffffffffffffffff169060200190929190803590602001909291905050506109ab565b60405180821515815260200191505060405180910390f35b61032d6004803603602081101561031757600080fd5b8101908080359060200190929190505050610a84565b6040518082815260200191505060405180910390f35b6103856004803603602081101561035957600080fd5b81019080803573ffffffffffffffffffffffffffffffffffffffff169060200190929190505050610aa4565b005b6103d36004803603604081101561039d57600080fd5b8101908080359060200190929190803573ffffffffffffffffffffffffffffffffffffffff169060200190929190505050610b6d565b005b6103dd610bf7565b604051808260ff16815260200191505060405180910390f35b6103fe610c0e565b6040518082815260200191505060405180910390f35b6104606004803603604081101561042a57600080fd5b8101908080359060200190929190803573ffffffffffffffffffffffffffffffffffffffff169060200190929190505050610c18565b005b6104ae6004803603604081101561047857600080fd5b81019080803573ffffffffffffffffffffffffffffffffffffffff16906020019092919080359060200190929190505050610cb1565b60405180821515815260200191505060405180910390f35b6104ce610d64565b60405180821515815260200191505060405180910390f35b610528600480360360208110156104fc57600080fd5b81019080803573ffffffffffffffffffffffffffffffffffffffff169060200190929190505050610d7b565b005b61056c6004803603602081101561054057600080fd5b81019080803573ffffffffffffffffffffffffffffffffffffffff169060200190929190505050610e25565b6040518082815260200191505060405180910390f35b61058a610e6d565b005b6105c2600480360360408110156105a257600080fd5b810190808035906020019092919080359060200190929190505050610f13565b604051808273ffffffffffffffffffffffffffffffffffffffff16815260200191505060405180910390f35b61063a6004803603604081101561060457600080fd5b8101908080359060200190929190803573ffffffffffffffffffffffffffffffffffffffff169060200190929190505050610f45565b60405180821515815260200191505060405180910390f35b61065a610f77565b6040518080602001828103825283818151815260200191508051906020019080838360005b8381101561069a57808201518184015260208101905061067f565b50505050905090810190601f1680156106c75780820380516001836020036101000a031916815260200191505b509250505060405180910390f35b6106dd611019565b6040518082815260200191505060405180910390f35b61073f6004803603604081101561070957600080fd5b81019080803573ffffffffffffffffffffffffffffffffffffffff16906020019092919080359060200190929190505050611020565b60405180821515815260200191505060405180910390f35b6107a36004803603604081101561076d57600080fd5b81019080803573ffffffffffffffffffffffffffffffffffffffff169060200190929190803590602001909291905050506110ed565b60405180821515815260200191505060405180910390f35b6107e7600480360360208110156107d157600080fd5b810190808035906020019092919050505061110b565b6040518082815260200191505060405180910390f35b6108496004803603604081101561081357600080fd5b8101908080359060200190929190803573ffffffffffffffffffffffffffffffffffffffff169060200190929190505050611132565b005b6108ad6004803603604081101561086157600080fd5b81019080803573ffffffffffffffffffffffffffffffffffffffff169060200190929190803573ffffffffffffffffffffffffffffffffffffffff1690602001909291905050506111bc565b6040518082815260200191505060405180910390f35b6108cb611243565b6040518082815260200191505060405180910390f35b606060038054600181600116156101000203166002900480601f0160208091040260200160405190810160405280929190818152602001828054600181600116156101000203166002900480156109795780601f1061094e57610100808354040283529160200191610979565b820191906000526020600020905b81548152906001019060200180831161095c57829003601f168201915b5050505050905090565b6000610997610990611297565b848461129f565b6001905092915050565b6000600254905090565b60006109b8848484611496565b610a79846109c4611297565b610a748560405180606001604052806028815260200161219360289139600160008b73ffffffffffffffffffffffffffffffffffffffff1673ffffffffffffffffffffffffffffffffffffffff1681526020019081526020016000206000610a2a611297565b73ffffffffffffffffffffffffffffffffffffffff1673ffffffffffffffffffffffffffffffffffffffff168152602001908152602001600020546117579092919063ffffffff16565b61129f565b600190509392505050565b600060066000838152602001908152602001600020600201549050919050565b610ace7f241ecf16d79d0f8dbfb92cbc07fe17840425976cf0667f022fe9877caa831b0833610f45565b610b40576040517f08c379a000000000000000000000000000000000000000000000000000000000815260040180806020018281038252601c8152602001807f43616c6c6572206973206e6f742061204d414e414745525f524f4c450000000081525060200191505060405180910390fd5b610b6a7f241ecf16d79d0f8dbfb92cbc07fe17840425976cf0667f022fe9877caa831b0882611817565b50565b610b946006600084815260200190815260200160002060020154610b8f611297565b610f45565b610be9576040517f08c379a000000000000000000000000000000000000000000000000000000000815260040180806020018281038252602f8152602001806120ae602f913960400191505060405180910390fd5b610bf38282611825565b5050565b6000600560009054906101000a900460ff16905090565b6000600754905090565b610c20611297565b73ffffffffffffffffffffffffffffffffffffffff168173ffffffffffffffffffffffffffffffffffffffff1614610ca3576040517f08c379a000000000000000000000000000000000000000000000000000000000815260040180806020018281038252602f815260200180612229602f913960400191505060405180910390fd5b610cad82826118b9565b5050565b6000610d5a610cbe611297565b84610d558560016000610ccf611297565b73ffffffffffffffffffffffffffffffffffffffff1673ffffffffffffffffffffffffffffffffffffffff16815260200190815260200160002060008973ffffffffffffffffffffffffffffffffffffffff1673ffffffffffffffffffffffffffffffffffffffff1681526020019081526020016000205461194d90919063ffffffff16565b61129f565b6001905092915050565b6000600560019054906101000a900460ff16905090565b610da57f241ecf16d79d0f8dbfb92cbc07fe17840425976cf0667f022fe9877caa831b0833610f45565b610e17576040517f08c379a000000000000000000000000000000000000000000000000000000000815260040180806020018281038252601c8152602001807f43616c6c6572206973206e6f742061204d414e414745525f524f4c450000000081525060200191505060405180910390fd5b610e228160016119d5565b50565b60008060008373ffffffffffffffffffffffffffffffffffffffff1673ffffffffffffffffffffffffffffffffffffffff168152602001908152602001600020549050919050565b610e977f241ecf16d79d0f8dbfb92cbc07fe17840425976cf0667f022fe9877caa831b0833610f45565b610f09576040517f08c379a000000000000000000000000000000000000000000000000000000000815260040180806020018281038252601c8152602001807f43616c6c6572206973206e6f742061204d414e414745525f524f4c450000000081525060200191505060405180910390fd5b610f11611b9c565b565b6000610f3d8260066000868152602001908152602001600020600001611c9090919063ffffffff16565b905092915050565b6000610f6f8260066000868152602001908152602001600020600001611caa90919063ffffffff16565b905092915050565b606060048054600181600116156101000203166002900480601f01602080910402602001604051908101604052809291908181526020018280546001816001161561010002031660029004801561100f5780601f10610fe45761010080835404028352916020019161100f565b820191906000526020600020905b815481529060010190602001808311610ff257829003601f168201915b5050505050905090565b6000801b81565b60006110e361102d611297565b846110de856040518060600160405280602581526020016122046025913960016000611057611297565b73ffffffffffffffffffffffffffffffffffffffff1673ffffffffffffffffffffffffffffffffffffffff16815260200190815260200160002060008a73ffffffffffffffffffffffffffffffffffffffff1673ffffffffffffffffffffffffffffffffffffffff168152602001908152602001600020546117579092919063ffffffff16565b61129f565b6001905092915050565b60006111016110fa611297565b8484611496565b6001905092915050565b600061112b60066000848152602001908152602001600020600001611cda565b9050919050565b6111596006600084815260200190815260200160002060020154611154611297565b610f45565b6111ae576040517f08c379a00000000000000000000000000000000000000000000000000000000081526004018080602001828103825260308152602001806121636030913960400191505060405180910390fd5b6111b882826118b9565b5050565b6000600160008473ffffffffffffffffffffffffffffffffffffffff1673ffffffffffffffffffffffffffffffffffffffff16815260200190815260200160002060008373ffffffffffffffffffffffffffffffffffffffff1673ffffffffffffffffffffffffffffffffffffffff16815260200190815260200160002054905092915050565b7f241ecf16d79d0f8dbfb92cbc07fe17840425976cf0667f022fe9877caa831b0881565b600061128f836000018373ffffffffffffffffffffffffffffffffffffffff1660001b611cef565b905092915050565b600033905090565b600073ffffffffffffffffffffffffffffffffffffffff168373ffffffffffffffffffffffffffffffffffffffff161415611325576040517f08c379a00000000000000000000000000000000000000000000000000000000081526004018080602001828103825260248152602001806121e06024913960400191505060405180910390fd5b600073ffffffffffffffffffffffffffffffffffffffff168273ffffffffffffffffffffffffffffffffffffffff1614156113ab576040517f08c379a00000000000000000000000000000000000000000000000000000000081526004018080602001828103825260228152602001806120dd6022913960400191505060405180910390fd5b80600160008573ffffffffffffffffffffffffffffffffffffffff1673ffffffffffffffffffffffffffffffffffffffff16815260200190815260200160002060008473ffffffffffffffffffffffffffffffffffffffff1673ffffffffffffffffffffffffffffffffffffffff168152602001908152602001600020819055508173ffffffffffffffffffffffffffffffffffffffff168373ffffffffffffffffffffffffffffffffffffffff167f8c5be1e5ebec7d5bd14f71427d1e84f3dd0314c0f7b2291e5b200ac8c7c3b925836040518082815260200191505060405180910390a3505050565b600073ffffffffffffffffffffffffffffffffffffffff168373ffffffffffffffffffffffffffffffffffffffff16141561151c576040517f08c379a00000000000000000000000000000000000000000000000000000000081526004018080602001828103825260258152602001806121bb6025913960400191505060405180910390fd5b600073ffffffffffffffffffffffffffffffffffffffff168273ffffffffffffffffffffffffffffffffffffffff1614156115a2576040517f08c379a000000000000000000000000000000000000000000000000000000000815260040180806020018281038252602381526020018061208b6023913960400191505060405180910390fd5b6115ad838383611d5f565b6116188160405180606001604052806026815260200161213d602691396000808773ffffffffffffffffffffffffffffffffffffffff1673ffffffffffffffffffffffffffffffffffffffff168152602001908152602001600020546117579092919063ffffffff16565b6000808573ffffffffffffffffffffffffffffffffffffffff1673ffffffffffffffffffffffffffffffffffffffff168152602001908152602001600020819055506116ab816000808573ffffffffffffffffffffffffffffffffffffffff1673ffffffffffffffffffffffffffffffffffffffff1681526020019081526020016000205461194d90919063ffffffff16565b6000808473ffffffffffffffffffffffffffffffffffffffff1673ffffffffffffffffffffffffffffffffffffffff168152602001908152602001600020819055508173ffffffffffffffffffffffffffffffffffffffff168373ffffffffffffffffffffffffffffffffffffffff167fddf252ad1be2c89b69c2b068fc378daa952ba7f163c4a11628f55a4df523b3ef836040518082815260200191505060405180910390a3505050565b6000838311158290611804576040517f08c379a00000000000000000000000000000000000000000000000000000000081526004018080602001828103825283818151815260200191508051906020019080838360005b838110156117c95780820151818401526020810190506117ae565b50505050905090810190601f1680156117f65780820380516001836020036101000a031916815260200191505b509250505060405180910390fd5b5060008385039050809150509392505050565b6118218282611825565b5050565b61184d816006600085815260200190815260200160002060000161126790919063ffffffff16565b156118b55761185a611297565b73ffffffffffffffffffffffffffffffffffffffff168173ffffffffffffffffffffffffffffffffffffffff16837f2f8788117e7eff1d82e926ec794901d17c78024a50270940304540a733656f0d60405160405180910390a45b5050565b6118e18160066000858152602001908152602001600020600001611e9490919063ffffffff16565b15611949576118ee611297565b73ffffffffffffffffffffffffffffffffffffffff168173ffffffffffffffffffffffffffffffffffffffff16837ff6391f5c32d9c69d2a47ea670b442974b53935d1edc7fd64eb21e047a839171b60405160405180910390a45b5050565b6000808284019050838110156119cb576040517f08c379a000000000000000000000000000000000000000000000000000000000815260040180806020018281038252601b8152602001807f536166654d6174683a206164646974696f6e206f766572666c6f77000000000081525060200191505060405180910390fd5b8091505092915050565b600073ffffffffffffffffffffffffffffffffffffffff168273ffffffffffffffffffffffffffffffffffffffff161415611a78576040517f08c379a000000000000000000000000000000000000000000000000000000000815260040180806020018281038252601f8152602001807f45524332303a206d696e7420746f20746865207a65726f20616464726573730081525060200191505060405180910390fd5b611a8460008383611d5f565b611a998160025461194d90919063ffffffff16565b600281905550611af0816000808573ffffffffffffffffffffffffffffffffffffffff1673ffffffffffffffffffffffffffffffffffffffff1681526020019081526020016000205461194d90919063ffffffff16565b6000808473ffffffffffffffffffffffffffffffffffffffff1673ffffffffffffffffffffffffffffffffffffffff168152602001908152602001600020819055508173ffffffffffffffffffffffffffffffffffffffff16600073ffffffffffffffffffffffffffffffffffffffff167fddf252ad1be2c89b69c2b068fc378daa952ba7f163c4a11628f55a4df523b3ef836040518082815260200191505060405180910390a35050565b600560019054906101000a900460ff1615611c1f576040517f08c379a00000000000000000000000000000000000000000000000000000000081526004018080602001828103825260108152602001807f5061757361626c653a207061757365640000000000000000000000000000000081525060200191505060405180910390fd5b6001600560016101000a81548160ff0219169083151502179055507f62e78cea01bee320cd4e420270b5ea74000d11b0c9f74754ebdbfc544b05a258611c63611297565b604051808273ffffffffffffffffffffffffffffffffffffffff16815260200191505060405180910390a1565b6000611c9f8360000183611ec4565b60001c905092915050565b6000611cd2836000018373ffffffffffffffffffffffffffffffffffffffff1660001b611f47565b905092915050565b6000611ce882600001611f6a565b9050919050565b6000611cfb8383611f47565b611d54578260000182908060018154018082558091505060019003906000526020600020016000909190919091505582600001805490508360010160008481526020019081526020016000208190555060019050611d59565b600090505b92915050565b611d6a838383611f7b565b611d72610d64565b15611dc8576040517f08c379a000000000000000000000000000000000000000000000000000000000815260040180806020018281038252603e8152602001806120ff603e913960400191505060405180910390fd5b600073ffffffffffffffffffffffffffffffffffffffff168373ffffffffffffffffffffffffffffffffffffffff161415611e8f57600754611e1a82611e0c6109a1565b61194d90919063ffffffff16565b1115611e8e576040517f08c379a00000000000000000000000000000000000000000000000000000000081526004018080602001828103825260198152602001807f45524332304361707065643a206361702065786365656465640000000000000081525060200191505060405180910390fd5b5b505050565b6000611ebc836000018373ffffffffffffffffffffffffffffffffffffffff1660001b611f80565b905092915050565b600081836000018054905011611f25576040517f08c379a00000000000000000000000000000000000000000000000000000000081526004018080602001828103825260228152602001806120696022913960400191505060405180910390fd5b826000018281548110611f3457fe5b9060005260206000200154905092915050565b600080836001016000848152602001908152602001600020541415905092915050565b600081600001805490509050919050565b505050565b6000808360010160008481526020019081526020016000205490506000811461205c5760006001820390506000600186600001805490500390506000866000018281548110611fcb57fe5b9060005260206000200154905080876000018481548110611fe857fe5b906000526020600020018190555060018301876001016000838152602001908152602001600020819055508660000180548061202057fe5b60019003818190600052602060002001600090559055866001016000878152602001908152602001600020600090556001945050505050612062565b60009150505b9291505056fe456e756d657261626c655365743a20696e646578206f7574206f6620626f756e647345524332303a207472616e7366657220746f20746865207a65726f2061646472657373416363657373436f6e74726f6c3a2073656e646572206d75737420626520616e2061646d696e20746f206772616e7445524332303a20617070726f766520746f20746865207a65726f2061646472657373456c656374696f6e4e46543a2063616e6e6f7420646f20746f6b656e207472616e73666572207768696c6520656c656374696f6e2069732070617573656445524332303a207472616e7366657220616d6f756e7420657863656564732062616c616e6365416363657373436f6e74726f6c3a2073656e646572206d75737420626520616e2061646d696e20746f207265766f6b6545524332303a207472616e7366657220616d6f756e74206578636565647320616c6c6f77616e636545524332303a207472616e736665722066726f6d20746865207a65726f206164647265737345524332303a20617070726f76652066726f6d20746865207a65726f206164647265737345524332303a2064656372656173656420616c6c6f77616e63652062656c6f77207a65726f416363657373436f6e74726f6c3a2063616e206f6e6c792072656e6f756e636520726f6c657320666f722073656c66a2646970667358221220d64b79e6a8d2297959d0bbb992fb7a5a41c52c10b5f6e044ccdde08ec4b8ff1e64736f6c63430007040033",
  "immutableReferences": {},
  "source": "// SPDX-License-Identifier: MIT\npragma solidity >=0.4.22 <0.9.0;\n\nimport \"@openzeppelin/contracts/access/AccessControl.sol\";\nimport \"./ElectionNFT.sol\";\n\ncontract ElectionNFTManager is AccessControl {\n    bytes32 public constant ADMIN_ROLE = keccak256(\"ADMIN_ROLE\");\n    ElectionNFT public nft;\n\n    constructor(string memory name_, string memory symbol_, uint256 cap_) {\n        _setupRole(ADMIN_ROLE, msg.sender);\n        createNewElection(name_, symbol_, cap_);\n    }\n\n    /**\n     * @dev Checks if the sender has admin role assigned\n     */\n    modifier isAdmin() {\n        require(hasRole(ADMIN_ROLE, msg.sender), \"Caller is not a ADMIN_ROLE\");\n        _;\n    }\n\n    /**\n     * @dev Since we don't allow unpausing an ElectionNFT we can use the pause function to pause all activity going forward\n     */\n    function stopActiveElection() public {\n        nft.pause();\n    }\n\n    /**\n     * @dev Create new election\n     */\n    function createNewElection(string memory name_, string memory symbol_, uint256 cap_) isAdmin public {\n        nft = new ElectionNFT(name_, symbol_, cap_);\n        nft.addManager(msg.sender);\n    }\n}",
  "sourcePath": "/Users/bvvliet/school/devote/smart_contracts/contracts/ElectionNFTManager.sol",
  "compiler": {
    "name": "solc",
    "version": "0.7.4+commit.3f05b770.Emscripten.clang"
  },
  "schemaVersion": "3.3.3",
  "updatedAt": "2021-01-27T20:38:14.205Z",
  "networkType": "ethereum",
  "devdoc": {
    "kind": "dev",
    "methods": {
      "createNewElection(string,string,uint256)": {
        "details": "Create new election"
      },
      "getRoleAdmin(bytes32)": {
        "details": "Returns the admin role that controls `role`. See {grantRole} and {revokeRole}. To change a role's admin, use {_setRoleAdmin}."
      },
      "getRoleMember(bytes32,uint256)": {
        "details": "Returns one of the accounts that have `role`. `index` must be a value between 0 and {getRoleMemberCount}, non-inclusive. Role bearers are not sorted in any particular way, and their ordering may change at any point. WARNING: When using {getRoleMember} and {getRoleMemberCount}, make sure you perform all queries on the same block. See the following https://forum.openzeppelin.com/t/iterating-over-elements-on-enumerableset-in-openzeppelin-contracts/2296[forum post] for more information."
      },
      "getRoleMemberCount(bytes32)": {
        "details": "Returns the number of accounts that have `role`. Can be used together with {getRoleMember} to enumerate all bearers of a role."
      },
      "grantRole(bytes32,address)": {
        "details": "Grants `role` to `account`. If `account` had not been already granted `role`, emits a {RoleGranted} event. Requirements: - the caller must have ``role``'s admin role."
      },
      "hasRole(bytes32,address)": {
        "details": "Returns `true` if `account` has been granted `role`."
      },
      "renounceRole(bytes32,address)": {
        "details": "Revokes `role` from the calling account. Roles are often managed via {grantRole} and {revokeRole}: this function's purpose is to provide a mechanism for accounts to lose their privileges if they are compromised (such as when a trusted device is misplaced). If the calling account had been granted `role`, emits a {RoleRevoked} event. Requirements: - the caller must be `account`."
      },
      "revokeRole(bytes32,address)": {
        "details": "Revokes `role` from `account`. If `account` had been granted `role`, emits a {RoleRevoked} event. Requirements: - the caller must have ``role``'s admin role."
      },
      "stopActiveElection()": {
        "details": "Since we don't allow unpausing an ElectionNFT we can use the pause function to pause all activity going forward"
      }
    },
    "version": 1
  },
  "userdoc": {
    "kind": "user",
    "methods": {},
    "version": 1
  }
}