{
  "contractName": "Election",
  "abi": [
    {
      "inputs": [
        {
          "internalType": "string",
          "name": "_name",
          "type": "string"
        }
      ],
      "payable": false,
      "stateMutability": "nonpayable",
      "type": "constructor"
    },
    {
      "constant": true,
      "inputs": [
        {
          "internalType": "uint256",
          "name": "",
          "type": "uint256"
        }
      ],
      "name": "candidates",
      "outputs": [
        {
          "internalType": "string",
          "name": "name",
          "type": "string"
        },
        {
          "internalType": "uint256",
          "name": "voteCount",
          "type": "uint256"
        }
      ],
      "payable": false,
      "stateMutability": "view",
      "type": "function"
    },
    {
      "constant": true,
      "inputs": [],
      "name": "electionName",
      "outputs": [
        {
          "internalType": "string",
          "name": "",
          "type": "string"
        }
      ],
      "payable": false,
      "stateMutability": "view",
      "type": "function"
    },
    {
      "constant": true,
      "inputs": [],
      "name": "owner",
      "outputs": [
        {
          "internalType": "address",
          "name": "",
          "type": "address"
        }
      ],
      "payable": false,
      "stateMutability": "view",
      "type": "function"
    },
    {
      "constant": true,
      "inputs": [],
      "name": "totalVotes",
      "outputs": [
        {
          "internalType": "uint256",
          "name": "",
          "type": "uint256"
        }
      ],
      "payable": false,
      "stateMutability": "view",
      "type": "function"
    },
    {
      "constant": true,
      "inputs": [
        {
          "internalType": "address",
          "name": "",
          "type": "address"
        }
      ],
      "name": "voters",
      "outputs": [
        {
          "internalType": "bool",
          "name": "voted",
          "type": "bool"
        },
        {
          "internalType": "uint256",
          "name": "vote",
          "type": "uint256"
        }
      ],
      "payable": false,
      "stateMutability": "view",
      "type": "function"
    },
    {
      "constant": false,
      "inputs": [
        {
          "internalType": "string",
          "name": "_name",
          "type": "string"
        }
      ],
      "name": "addCandidate",
      "outputs": [],
      "payable": false,
      "stateMutability": "nonpayable",
      "type": "function"
    },
    {
      "constant": true,
      "inputs": [],
      "name": "getCandidateLength",
      "outputs": [
        {
          "internalType": "uint256",
          "name": "candidateCount",
          "type": "uint256"
        }
      ],
      "payable": false,
      "stateMutability": "view",
      "type": "function"
    },
    {
      "constant": false,
      "inputs": [
        {
          "internalType": "uint256",
          "name": "_voteIndex",
          "type": "uint256"
        }
      ],
      "name": "vote",
      "outputs": [],
      "payable": false,
      "stateMutability": "nonpayable",
      "type": "function"
    },
    {
      "constant": false,
      "inputs": [],
      "name": "blankVote",
      "outputs": [],
      "payable": false,
      "stateMutability": "nonpayable",
      "type": "function"
    }
  ],
  "bytecode": "0x608060405234801561001057600080fd5b50604051610b1c380380610b1c8339818101604052602081101561003357600080fd5b810190808051604051939291908464010000000082111561005357600080fd5b8382019150602082018581111561006957600080fd5b825186600182028301116401000000008211171561008657600080fd5b8083526020830192505050908051906020019080838360005b838110156100ba57808201518184015260208101905061009f565b50505050905090810190601f1680156100e75780820380516001836020036101000a031916815260200191505b50604052505050336000806101000a81548173ffffffffffffffffffffffffffffffffffffffff021916908373ffffffffffffffffffffffffffffffffffffffff160217905550806001908051906020019061014492919061014b565b50506101f0565b828054600181600116156101000203166002900490600052602060002090601f016020900481019282601f1061018c57805160ff19168380011785556101ba565b828001600101855582156101ba579182015b828111156101b957825182559160200191906001019061019e565b5b5090506101c791906101cb565b5090565b6101ed91905b808211156101e95760008160009055506001016101d1565b5090565b90565b61091d806101ff6000396000f3fe608060405234801561001057600080fd5b50600436106100935760003560e01c806385e8e7a71161006657806385e8e7a71461024d5780638da5cb5b146102d0578063a3ec138d1461031a578063c5f8995c1461037d578063f7522a831461038757610093565b80630121b93f146100985780630d15fd77146100c65780633477ee2e146100e4578063462e91ec14610192575b600080fd5b6100c4600480360360208110156100ae57600080fd5b81019080803590602001909291905050506103a5565b005b6100ce6104e2565b6040518082815260200191505060405180910390f35b610110600480360360208110156100fa57600080fd5b81019080803590602001909291905050506104e8565b6040518080602001838152602001828103825284818151815260200191508051906020019080838360005b8381101561015657808201518184015260208101905061013b565b50505050905090810190601f1680156101835780820380516001836020036101000a031916815260200191505b50935050505060405180910390f35b61024b600480360360208110156101a857600080fd5b81019080803590602001906401000000008111156101c557600080fd5b8201836020820111156101d757600080fd5b803590602001918460018302840111640100000000831117156101f957600080fd5b91908080601f016020809104026020016040519081016040528093929190818152602001838380828437600081840152601f19601f8201169050808301925050505050505091929192905050506105b1565b005b61025561067a565b6040518080602001828103825283818151815260200191508051906020019080838360005b8381101561029557808201518184015260208101905061027a565b50505050905090810190601f1680156102c25780820380516001836020036101000a031916815260200191505b509250505060405180910390f35b6102d8610718565b604051808273ffffffffffffffffffffffffffffffffffffffff1673ffffffffffffffffffffffffffffffffffffffff16815260200191505060405180910390f35b61035c6004803603602081101561033057600080fd5b81019080803573ffffffffffffffffffffffffffffffffffffffff16906020019092919050505061073d565b60405180831515151581526020018281526020019250505060405180910390f35b61038561076e565b005b61038f610836565b6040518082815260200191505060405180910390f35b600260003373ffffffffffffffffffffffffffffffffffffffff1673ffffffffffffffffffffffffffffffffffffffff16815260200190815260200160002060000160009054906101000a900460ff16156103ff57600080fd5b6001600260003373ffffffffffffffffffffffffffffffffffffffff1673ffffffffffffffffffffffffffffffffffffffff16815260200190815260200160002060000160006101000a81548160ff02191690831515021790555080600260003373ffffffffffffffffffffffffffffffffffffffff1673ffffffffffffffffffffffffffffffffffffffff168152602001908152602001600020600101819055506001600382815481106104b057fe5b906000526020600020906002020160010160008282540192505081905550600160046000828254019250508190555050565b60045481565b600381815481106104f557fe5b9060005260206000209060020201600091509050806000018054600181600116156101000203166002900480601f0160208091040260200160405190810160405280929190818152602001828054600181600116156101000203166002900480156105a15780601f10610576576101008083540402835291602001916105a1565b820191906000526020600020905b81548152906001019060200180831161058457829003601f168201915b5050505050908060010154905082565b6000809054906101000a900473ffffffffffffffffffffffffffffffffffffffff1673ffffffffffffffffffffffffffffffffffffffff163373ffffffffffffffffffffffffffffffffffffffff161461060a57600080fd5b600360405180604001604052808381526020016000815250908060018154018082558091505090600182039060005260206000209060020201600090919290919091506000820151816000019080519060200190610669929190610843565b506020820151816001015550505050565b60018054600181600116156101000203166002900480601f0160208091040260200160405190810160405280929190818152602001828054600181600116156101000203166002900480156107105780601f106106e557610100808354040283529160200191610710565b820191906000526020600020905b8154815290600101906020018083116106f357829003601f168201915b505050505081565b6000809054906101000a900473ffffffffffffffffffffffffffffffffffffffff1681565b60026020528060005260406000206000915090508060000160009054906101000a900460ff16908060010154905082565b600260003373ffffffffffffffffffffffffffffffffffffffff1673ffffffffffffffffffffffffffffffffffffffff16815260200190815260200160002060000160009054906101000a900460ff16156107c857600080fd5b6001600260003373ffffffffffffffffffffffffffffffffffffffff1673ffffffffffffffffffffffffffffffffffffffff16815260200190815260200160002060000160006101000a81548160ff0219169083151502179055506001600460008282540192505081905550565b6000600380549050905090565b828054600181600116156101000203166002900490600052602060002090601f016020900481019282601f1061088457805160ff19168380011785556108b2565b828001600101855582156108b2579182015b828111156108b1578251825591602001919060010190610896565b5b5090506108bf91906108c3565b5090565b6108e591905b808211156108e15760008160009055506001016108c9565b5090565b9056fea265627a7a72315820b19e44169656f0bb79f614f9069c25851619bdbcb8faeef8554e29f93d26181c64736f6c63430005100032",
  "source": "// SPDX-License-Identifier: MIT\npragma solidity >=0.4.22 <0.9.0;\n\ncontract Election {\n    address public owner;\n    string public electionName;\n\n    struct Candidate {\n        string name;\n        uint voteCount;\n    }\n\n    struct Voter {\n        bool voted;\n        uint vote;\n    }\n\n    mapping(address => Voter) public voters;\n    Candidate[] public candidates;\n    uint public totalVotes;\n\n    constructor(string memory _name) public {\n        owner = msg.sender;\n        electionName = _name;\n    }\n\n    // Modifier to check if the user is the owner\n    modifier isOwner() {\n        require(msg.sender == owner);\n        _;\n    }\n\n    // check has not voted\n    modifier hasNotVoted() {\n        require(!voters[msg.sender].voted);\n        _;\n    }\n\n    // Add a new candidate to be elected\n    function addCandidate(string memory _name) isOwner public {\n        candidates.push(Candidate(_name, 0));\n    }\n\n    // Get candidate length\n    function getCandidateLength() public view returns (uint candidateCount) {\n        return candidates.length;\n    }\n\n    // Vote on a candidate index\n    function vote(uint _voteIndex) hasNotVoted public {\n        voters[msg.sender].voted = true;\n        voters[msg.sender].vote = _voteIndex;\n\n        candidates[_voteIndex].voteCount += 1;\n        totalVotes += 1;\n    }\n\n    // Voting blank\n    function blankVote() hasNotVoted public {\n        voters[msg.sender].voted = true;\n\n        totalVotes += 1;\n    }\n}\n",
  "sourcePath": "/Users/jeroenfrenken/dev/block-chain-hyperledeger-besu/smart_contracts/contracts/Election.sol",
  "compiler": {
    "name": "solc",
    "version": "0.5.16+commit.9c3226ce.Emscripten.clang"
  },
  "schemaVersion": "3.3.3",
  "updatedAt": "2021-01-20T22:20:34.779Z",
  "networkType": "ethereum",
  "devdoc": {
    "methods": {}
  },
  "userdoc": {
    "methods": {}
  }
}