{
  "contractName": "Election",
  "abi": [
    {
      "inputs": [
        {
          "internalType": "string",
          "name": "_name",
          "type": "string"
        }
      ],
      "stateMutability": "nonpayable",
      "type": "constructor"
    },
    {
      "inputs": [
        {
          "internalType": "uint256",
          "name": "",
          "type": "uint256"
        }
      ],
      "name": "candidates",
      "outputs": [
        {
          "internalType": "string",
          "name": "name",
          "type": "string"
        },
        {
          "internalType": "uint256",
          "name": "voteCount",
          "type": "uint256"
        }
      ],
      "stateMutability": "view",
      "type": "function"
    },
    {
      "inputs": [],
      "name": "electionName",
      "outputs": [
        {
          "internalType": "string",
          "name": "",
          "type": "string"
        }
      ],
      "stateMutability": "view",
      "type": "function"
    },
    {
      "inputs": [],
      "name": "owner",
      "outputs": [
        {
          "internalType": "address",
          "name": "",
          "type": "address"
        }
      ],
      "stateMutability": "view",
      "type": "function"
    },
    {
      "inputs": [],
      "name": "totalVotes",
      "outputs": [
        {
          "internalType": "uint256",
          "name": "",
          "type": "uint256"
        }
      ],
      "stateMutability": "view",
      "type": "function"
    },
    {
      "inputs": [
        {
          "internalType": "address",
          "name": "",
          "type": "address"
        }
      ],
      "name": "whitelist",
      "outputs": [
        {
          "internalType": "bool",
          "name": "",
          "type": "bool"
        }
      ],
      "stateMutability": "view",
      "type": "function"
    },
    {
      "inputs": [
        {
          "internalType": "address",
          "name": "_address",
          "type": "address"
        }
      ],
      "name": "addVoter",
      "outputs": [],
      "stateMutability": "nonpayable",
      "type": "function"
    },
    {
      "inputs": [
        {
          "internalType": "string",
          "name": "_name",
          "type": "string"
        }
      ],
      "name": "addCandidate",
      "outputs": [],
      "stateMutability": "nonpayable",
      "type": "function"
    },
    {
      "inputs": [],
      "name": "getCandidateLength",
      "outputs": [
        {
          "internalType": "uint256",
          "name": "candidateCount",
          "type": "uint256"
        }
      ],
      "stateMutability": "view",
      "type": "function"
    },
    {
      "inputs": [
        {
          "internalType": "uint256",
          "name": "_voteIndex",
          "type": "uint256"
        }
      ],
      "name": "vote",
      "outputs": [],
      "stateMutability": "nonpayable",
      "type": "function"
    },
    {
      "inputs": [],
      "name": "blankVote",
      "outputs": [],
      "stateMutability": "nonpayable",
      "type": "function"
    }
  ],
  "bytecode": "0x608060405234801561001057600080fd5b50604051610ba4380380610ba48339818101604052602081101561003357600080fd5b810190808051604051939291908464010000000082111561005357600080fd5b8382019150602082018581111561006957600080fd5b825186600182028301116401000000008211171561008657600080fd5b8083526020830192505050908051906020019080838360005b838110156100ba57808201518184015260208101905061009f565b50505050905090810190601f1680156100e75780820380516001836020036101000a031916815260200191505b50604052505050336000806101000a81548173ffffffffffffffffffffffffffffffffffffffff021916908373ffffffffffffffffffffffffffffffffffffffff160217905550806001908051906020019061014492919061014b565b50506101f6565b828054600181600116156101000203166002900490600052602060002090601f01602090048101928261018157600085556101c8565b82601f1061019a57805160ff19168380011785556101c8565b828001600101855582156101c8579182015b828111156101c75782518255916020019190600101906101ac565b5b5090506101d591906101d9565b5090565b5b808211156101f25760008160009055506001016101da565b5090565b61099f806102056000396000f3fe608060405234801561001057600080fd5b506004361061009e5760003560e01c80638da5cb5b116100665780638da5cb5b146102db5780639b19251a1461030f578063c5f8995c14610369578063f4ab9adf14610373578063f7522a83146103b75761009e565b80630121b93f146100a35780630d15fd77146100d15780633477ee2e146100ef578063462e91ec1461019d57806385e8e7a714610258575b600080fd5b6100cf600480360360208110156100b957600080fd5b81019080803590602001909291905050506103d5565b005b6100d96104c4565b6040518082815260200191505060405180910390f35b61011b6004803603602081101561010557600080fd5b81019080803590602001909291905050506104ca565b6040518080602001838152602001828103825284818151815260200191508051906020019080838360005b83811015610161578082015181840152602081019050610146565b50505050905090810190601f16801561018e5780820380516001836020036101000a031916815260200191505b50935050505060405180910390f35b610256600480360360208110156101b357600080fd5b81019080803590602001906401000000008111156101d057600080fd5b8201836020820111156101e257600080fd5b8035906020019184600183028401116401000000008311171561020457600080fd5b91908080601f016020809104026020016040519081016040528093929190818152602001838380828437600081840152601f19601f820116905080830192505050505050509192919290505050610596565b005b61026061065b565b6040518080602001828103825283818151815260200191508051906020019080838360005b838110156102a0578082015181840152602081019050610285565b50505050905090810190601f1680156102cd5780820380516001836020036101000a031916815260200191505b509250505060405180910390f35b6102e36106f9565b604051808273ffffffffffffffffffffffffffffffffffffffff16815260200191505060405180910390f35b6103516004803603602081101561032557600080fd5b81019080803573ffffffffffffffffffffffffffffffffffffffff16906020019092919050505061071d565b60405180821515815260200191505060405180910390f35b61037161073d565b005b6103b56004803603602081101561038957600080fd5b81019080803573ffffffffffffffffffffffffffffffffffffffff1690602001909291905050506107fe565b005b6103bf6108b1565b6040518082815260200191505060405180910390f35b600260003373ffffffffffffffffffffffffffffffffffffffff1673ffffffffffffffffffffffffffffffffffffffff16815260200190815260200160002060009054906101000a900460ff1661042b57600080fd5b6000600260003373ffffffffffffffffffffffffffffffffffffffff1673ffffffffffffffffffffffffffffffffffffffff16815260200190815260200160002060006101000a81548160ff02191690831515021790555060016004828154811061049257fe5b906000526020600020906002020160010160008282540192505081905550600160036000828254019250508190555050565b60035481565b600481815481106104da57600080fd5b9060005260206000209060020201600091509050806000018054600181600116156101000203166002900480601f0160208091040260200160405190810160405280929190818152602001828054600181600116156101000203166002900480156105865780601f1061055b57610100808354040283529160200191610586565b820191906000526020600020905b81548152906001019060200180831161056957829003601f168201915b5050505050908060010154905082565b60008054906101000a900473ffffffffffffffffffffffffffffffffffffffff1673ffffffffffffffffffffffffffffffffffffffff163373ffffffffffffffffffffffffffffffffffffffff16146105ee57600080fd5b6004604051806040016040528083815260200160008152509080600181540180825580915050600190039060005260206000209060020201600090919091909150600082015181600001908051906020019061064b9291906108be565b5060208201518160010155505050565b60018054600181600116156101000203166002900480601f0160208091040260200160405190810160405280929190818152602001828054600181600116156101000203166002900480156106f15780601f106106c6576101008083540402835291602001916106f1565b820191906000526020600020905b8154815290600101906020018083116106d457829003601f168201915b505050505081565b60008054906101000a900473ffffffffffffffffffffffffffffffffffffffff1681565b60026020528060005260406000206000915054906101000a900460ff1681565b600260003373ffffffffffffffffffffffffffffffffffffffff1673ffffffffffffffffffffffffffffffffffffffff16815260200190815260200160002060009054906101000a900460ff1661079357600080fd5b6000600260003373ffffffffffffffffffffffffffffffffffffffff1673ffffffffffffffffffffffffffffffffffffffff16815260200190815260200160002060006101000a81548160ff0219169083151502179055506001600360008282540192505081905550565b60008054906101000a900473ffffffffffffffffffffffffffffffffffffffff1673ffffffffffffffffffffffffffffffffffffffff163373ffffffffffffffffffffffffffffffffffffffff161461085657600080fd5b6001600260008373ffffffffffffffffffffffffffffffffffffffff1673ffffffffffffffffffffffffffffffffffffffff16815260200190815260200160002060006101000a81548160ff02191690831515021790555050565b6000600480549050905090565b828054600181600116156101000203166002900490600052602060002090601f0160209004810192826108f4576000855561093b565b82601f1061090d57805160ff191683800117855561093b565b8280016001018555821561093b579182015b8281111561093a57825182559160200191906001019061091f565b5b509050610948919061094c565b5090565b5b8082111561096557600081600090555060010161094d565b509056fea264697066735822122088f5175fe6c9704700505436bf720edbf7305c18c808209d74d6c5554435b04564736f6c63430007040033",
  "immutableReferences": {},
  "source": "// SPDX-License-Identifier: MIT\npragma solidity >=0.4.22 <0.9.0;\n\ncontract Election {\n    address public owner;\n    string public electionName;\n\n    struct Candidate {\n        string name;\n        uint voteCount;\n    }\n\n    struct Voter {\n        bool voted;\n        uint vote;\n    }\n\n    /*\n    * Address which are whitelisted\n    */\n    mapping(address => bool) public whitelist;\n    uint public totalVotes;\n    Candidate[] public candidates;\n\n    constructor(string memory _name) public {\n        owner = msg.sender;\n        electionName = _name;\n    }\n\n    // Modifier to check if the user is the owner\n    modifier isOwner() {\n        require(msg.sender == owner);\n        _;\n    }\n\n    // Modifier to check if the user is whitelisted\n    modifier canVote() {\n        require(whitelist[msg.sender]);\n        _;\n    }\n\n    // Add a voter to the whitelist\n    function addVoter(address _address) isOwner public {\n        whitelist[_address] = true;\n    }\n\n    // Add a new candidate to be elected\n    function addCandidate(string memory _name) isOwner public {\n        candidates.push(Candidate(_name, 0));\n    }\n\n    // Get candidate length\n    function getCandidateLength() public view returns (uint candidateCount) {\n        return candidates.length;\n    }\n\n    // Vote on a candidate index\n    function vote(uint _voteIndex) canVote public {\n        whitelist[msg.sender] = false;\n        candidates[_voteIndex].voteCount += 1;\n        totalVotes += 1;\n    }\n\n    // Voting blank\n    function blankVote() canVote public {\n        whitelist[msg.sender] = false;\n        totalVotes += 1;\n    }\n}\n",
  "sourcePath": "/Users/bvvliet/school/devote/smart_contracts/contracts/Election.sol",
  "compiler": {
    "name": "solc",
    "version": "0.7.4+commit.3f05b770.Emscripten.clang"
  },
  "schemaVersion": "3.3.3",
  "updatedAt": "2021-01-27T20:41:51.516Z",
  "devdoc": {
    "kind": "dev",
    "methods": {},
    "version": 1
  },
  "userdoc": {
    "kind": "user",
    "methods": {},
    "version": 1
  }
}